{
  "contractName": "IoTDataStorage",
  "abi": [
    {
      "inputs": [],
      "stateMutability": "nonpayable",
      "type": "constructor"
    },
    {
      "inputs": [],
      "name": "MAX_ENTRIES",
      "outputs": [
        {
          "internalType": "uint256",
          "name": "",
          "type": "uint256"
        }
      ],
      "stateMutability": "view",
      "type": "function",
      "constant": true
    },
    {
      "inputs": [],
      "name": "owner",
      "outputs": [
        {
          "internalType": "address",
          "name": "",
          "type": "address"
        }
      ],
      "stateMutability": "view",
      "type": "function",
      "constant": true
    },
    {
      "inputs": [
        {
          "internalType": "uint256",
          "name": "",
          "type": "uint256"
        }
      ],
      "name": "records",
      "outputs": [
        {
          "internalType": "uint256",
          "name": "timestamp",
          "type": "uint256"
        },
        {
          "internalType": "string",
          "name": "patientId",
          "type": "string"
        },
        {
          "internalType": "string",
          "name": "deviceId",
          "type": "string"
        },
        {
          "internalType": "string",
          "name": "heartRate",
          "type": "string"
        },
        {
          "internalType": "string",
          "name": "spo2",
          "type": "string"
        },
        {
          "internalType": "string",
          "name": "temperature",
          "type": "string"
        }
      ],
      "stateMutability": "view",
      "type": "function",
      "constant": true
    },
    {
      "inputs": [
        {
          "internalType": "string",
          "name": "_patientId",
          "type": "string"
        },
        {
          "internalType": "string",
          "name": "_deviceId",
          "type": "string"
        },
        {
          "internalType": "string",
          "name": "_heartRate",
          "type": "string"
        },
        {
          "internalType": "string",
          "name": "_spo2",
          "type": "string"
        },
        {
          "internalType": "string",
          "name": "_temperature",
          "type": "string"
        }
      ],
      "name": "storePatientVitals",
      "outputs": [],
      "stateMutability": "nonpayable",
      "type": "function"
    },
    {
      "inputs": [],
      "name": "getTotalRecords",
      "outputs": [
        {
          "internalType": "uint256",
          "name": "",
          "type": "uint256"
        }
      ],
      "stateMutability": "view",
      "type": "function",
      "constant": true
    },
    {
      "inputs": [
        {
          "internalType": "uint256",
          "name": "index",
          "type": "uint256"
        }
      ],
      "name": "getRecord",
      "outputs": [
        {
          "internalType": "uint256",
          "name": "",
          "type": "uint256"
        },
        {
          "internalType": "string",
          "name": "",
          "type": "string"
        },
        {
          "internalType": "string",
          "name": "",
          "type": "string"
        },
        {
          "internalType": "string",
          "name": "",
          "type": "string"
        },
        {
          "internalType": "string",
          "name": "",
          "type": "string"
        },
        {
          "internalType": "string",
          "name": "",
          "type": "string"
        }
      ],
      "stateMutability": "view",
      "type": "function",
      "constant": true
    }
  ],
  "bytecode": "0x608060405234801561001057600080fd5b5033600160006101000a81548173ffffffffffffffffffffffffffffffffffffffff021916908373ffffffffffffffffffffffffffffffffffffffff160217905550611059806100616000396000f3fe608060405234801561001057600080fd5b50600436106100625760003560e01c806303e9e609146100675780630aeacb5e1461009c57806334461067146100ba5780637d4cb964146100ef5780638da5cb5b1461010d578063fdb712311461012b575b600080fd5b610081600480360381019061007c9190610c16565b610147565b60405161009396959493929190610dec565b60405180910390f35b6100a4610506565b6040516100b19190610dd1565b60405180910390f35b6100d460048036038101906100cf9190610c16565b610512565b6040516100e696959493929190610dec565b60405180910390f35b6100f7610806565b6040516101049190610dd1565b60405180910390f35b61011561080c565b6040516101229190610d56565b60405180910390f35b61014560048036038101906101409190610b27565b610832565b005b600060608060608060606000805490508710610198576040517f08c379a000000000000000000000000000000000000000000000000000000000815260040161018f90610d91565b60405180910390fd5b60008088815481106101d3577f4e487b7100000000000000000000000000000000000000000000000000000000600052603260045260246000fd5b90600052602060002090600602016040518060c00160405290816000820154815260200160018201805461020690610f6b565b80601f016020809104026020016040519081016040528092919081815260200182805461023290610f6b565b801561027f5780601f106102545761010080835404028352916020019161027f565b820191906000526020600020905b81548152906001019060200180831161026257829003601f168201915b5050505050815260200160028201805461029890610f6b565b80601f01602080910402602001604051908101604052809291908181526020018280546102c490610f6b565b80156103115780601f106102e657610100808354040283529160200191610311565b820191906000526020600020905b8154815290600101906020018083116102f457829003601f168201915b5050505050815260200160038201805461032a90610f6b565b80601f016020809104026020016040519081016040528092919081815260200182805461035690610f6b565b80156103a35780601f10610378576101008083540402835291602001916103a3565b820191906000526020600020905b81548152906001019060200180831161038657829003601f168201915b505050505081526020016004820180546103bc90610f6b565b80601f01602080910402602001604051908101604052809291908181526020018280546103e890610f6b565b80156104355780601f1061040a57610100808354040283529160200191610435565b820191906000526020600020905b81548152906001019060200180831161041857829003601f168201915b5050505050815260200160058201805461044e90610f6b565b80601f016020809104026020016040519081016040528092919081815260200182805461047a90610f6b565b80156104c75780601f1061049c576101008083540402835291602001916104c7565b820191906000526020600020905b8154815290600101906020018083116104aa57829003601f168201915b5050505050815250509050806000015181602001518260400151836060015184608001518560a001519650965096509650965096505091939550919395565b60008080549050905090565b6000818154811061052257600080fd5b906000526020600020906006020160009150905080600001549080600101805461054b90610f6b565b80601f016020809104026020016040519081016040528092919081815260200182805461057790610f6b565b80156105c45780601f10610599576101008083540402835291602001916105c4565b820191906000526020600020905b8154815290600101906020018083116105a757829003601f168201915b5050505050908060020180546105d990610f6b565b80601f016020809104026020016040519081016040528092919081815260200182805461060590610f6b565b80156106525780601f1061062757610100808354040283529160200191610652565b820191906000526020600020905b81548152906001019060200180831161063557829003601f168201915b50505050509080600301805461066790610f6b565b80601f016020809104026020016040519081016040528092919081815260200182805461069390610f6b565b80156106e05780601f106106b5576101008083540402835291602001916106e0565b820191906000526020600020905b8154815290600101906020018083116106c357829003601f168201915b5050505050908060040180546106f590610f6b565b80601f016020809104026020016040519081016040528092919081815260200182805461072190610f6b565b801561076e5780601f106107435761010080835404028352916020019161076e565b820191906000526020600020905b81548152906001019060200180831161075157829003601f168201915b50505050509080600501805461078390610f6b565b80601f01602080910402602001604051908101604052809291908181526020018280546107af90610f6b565b80156107fc5780601f106107d1576101008083540402835291602001916107fc565b820191906000526020600020905b8154815290600101906020018083116107df57829003601f168201915b5050505050905086565b6103e881565b600160009054906101000a900473ffffffffffffffffffffffffffffffffffffffff1681565b600160009054906101000a900473ffffffffffffffffffffffffffffffffffffffff1673ffffffffffffffffffffffffffffffffffffffff163373ffffffffffffffffffffffffffffffffffffffff16146108c2576040517f08c379a00000000000000000000000000000000000000000000000000000000081526004016108b990610db1565b60405180910390fd5b6103e86000805490501061090b576040517f08c379a000000000000000000000000000000000000000000000000000000000815260040161090290610d71565b60405180910390fd5b60006040518060c00160405280428152602001878152602001868152602001858152602001848152602001838152509080600181540180825580915050600190039060005260206000209060060201600090919091909150600082015181600001556020820151816001019080519060200190610989929190610a07565b5060408201518160020190805190602001906109a6929190610a07565b5060608201518160030190805190602001906109c3929190610a07565b5060808201518160040190805190602001906109e0929190610a07565b5060a08201518160050190805190602001906109fd929190610a07565b5050505050505050565b828054610a1390610f6b565b90600052602060002090601f016020900481019282610a355760008555610a7c565b82601f10610a4e57805160ff1916838001178555610a7c565b82800160010185558215610a7c579182015b82811115610a7b578251825591602001919060010190610a60565b5b509050610a899190610a8d565b5090565b5b80821115610aa6576000816000905550600101610a8e565b5090565b6000610abd610ab884610ea1565b610e70565b905082815260208101848484011115610ad557600080fd5b610ae0848285610f29565b509392505050565b600082601f830112610af957600080fd5b8135610b09848260208601610aaa565b91505092915050565b600081359050610b218161100c565b92915050565b600080600080600060a08688031215610b3f57600080fd5b600086013567ffffffffffffffff811115610b5957600080fd5b610b6588828901610ae8565b955050602086013567ffffffffffffffff811115610b8257600080fd5b610b8e88828901610ae8565b945050604086013567ffffffffffffffff811115610bab57600080fd5b610bb788828901610ae8565b935050606086013567ffffffffffffffff811115610bd457600080fd5b610be088828901610ae8565b925050608086013567ffffffffffffffff811115610bfd57600080fd5b610c0988828901610ae8565b9150509295509295909350565b600060208284031215610c2857600080fd5b6000610c3684828501610b12565b91505092915050565b610c4881610eed565b82525050565b6000610c5982610ed1565b610c638185610edc565b9350610c73818560208601610f38565b610c7c81610ffb565b840191505092915050565b6000610c94601583610edc565b91507f53746f72616765206c696d6974207265616368656400000000000000000000006000830152602082019050919050565b6000610cd4601383610edc565b91507f496e646578206f7574206f6620626f756e6473000000000000000000000000006000830152602082019050919050565b6000610d14600e83610edc565b91507f4e6f7420617574686f72697a65640000000000000000000000000000000000006000830152602082019050919050565b610d5081610f1f565b82525050565b6000602082019050610d6b6000830184610c3f565b92915050565b60006020820190508181036000830152610d8a81610c87565b9050919050565b60006020820190508181036000830152610daa81610cc7565b9050919050565b60006020820190508181036000830152610dca81610d07565b9050919050565b6000602082019050610de66000830184610d47565b92915050565b600060c082019050610e016000830189610d47565b8181036020830152610e138188610c4e565b90508181036040830152610e278187610c4e565b90508181036060830152610e3b8186610c4e565b90508181036080830152610e4f8185610c4e565b905081810360a0830152610e638184610c4e565b9050979650505050505050565b6000604051905081810181811067ffffffffffffffff82111715610e9757610e96610fcc565b5b8060405250919050565b600067ffffffffffffffff821115610ebc57610ebb610fcc565b5b601f19601f8301169050602081019050919050565b600081519050919050565b600082825260208201905092915050565b6000610ef882610eff565b9050919050565b600073ffffffffffffffffffffffffffffffffffffffff82169050919050565b6000819050919050565b82818337600083830152505050565b60005b83811015610f56578082015181840152602081019050610f3b565b83811115610f65576000848401525b50505050565b60006002820490506001821680610f8357607f821691505b60208210811415610f9757610f96610f9d565b5b50919050565b7f4e487b7100000000000000000000000000000000000000000000000000000000600052602260045260246000fd5b7f4e487b7100000000000000000000000000000000000000000000000000000000600052604160045260246000fd5b6000601f19601f8301169050919050565b61101581610f1f565b811461102057600080fd5b5056fea26469706673582212202d2137169969654818c04acf1a9af009893b1f74fd0719530f54dded4024a6ab64736f6c63430008000033",
  "immutableReferences": {},
  "source": "// SPDX-License-Identifier: MIT\r\npragma solidity ^0.8.0;\r\n\r\ncontract IoTDataStorage {\r\n    struct PatientData {\r\n        uint256 timestamp;\r\n        string patientId;\r\n        string deviceId;\r\n        string heartRate;\r\n        string spo2;\r\n        string temperature;\r\n    }\r\n\r\n    PatientData[] public records;\r\n    address public owner;\r\n    uint256 public constant MAX_ENTRIES = 1000;\r\n\r\n    modifier onlyOwner() {\r\n        require(msg.sender == owner, \"Not authorized\");\r\n        _;\r\n    }\r\n\r\n    constructor() {\r\n        owner = msg.sender;\r\n    }\r\n\r\n    function storePatientVitals(\r\n        string memory _patientId,\r\n        string memory _deviceId,\r\n        string memory _heartRate,\r\n        string memory _spo2,\r\n        string memory _temperature\r\n    ) public onlyOwner {\r\n        require(records.length < MAX_ENTRIES, \"Storage limit reached\");\r\n\r\n        records.push(PatientData({\r\n            timestamp: block.timestamp,\r\n            patientId: _patientId,\r\n            deviceId: _deviceId,\r\n            heartRate: _heartRate,\r\n            spo2: _spo2,\r\n            temperature: _temperature\r\n        }));\r\n    }\r\n\r\n    function getTotalRecords() public view returns (uint256) {\r\n        return records.length;\r\n    }\r\n\r\n    function getRecord(uint256 index) public view returns (\r\n        uint256,\r\n        string memory,\r\n        string memory,\r\n        string memory,\r\n        string memory,\r\n        string memory\r\n    ) {\r\n        require(index < records.length, \"Index out of bounds\");\r\n        PatientData memory r = records[index];\r\n        return (\r\n            r.timestamp,\r\n            r.patientId,\r\n            r.deviceId,\r\n            r.heartRate,\r\n            r.spo2,\r\n            r.temperature\r\n        );\r\n    }\r\n}",
  "sourcePath": "C:\\Users\\Yennie\\SmartMonitoring\\contracts\\IoTDataStorage.sol",
  "compiler": {
    "name": "solc",
    "version": "0.8.0+commit.c7dfd78e.Emscripten.clang"
  },
  "schemaVersion": "3.4.16",
  "updatedAt": "2025-05-30T10:35:14.447Z",
  "networkType": "ethereum",
  "devdoc": {
    "kind": "dev",
    "methods": {},
    "version": 1
  },
  "userdoc": {
    "kind": "user",
    "methods": {},
    "version": 1
  }
}